{
  "_format": "hh-sol-artifact-1",
  "contractName": "FundingEscrow",
  "sourceName": "contracts/FundingEscrow.sol",
  "abi": [
    {
      "inputs": [
        {
          "internalType": "address",
          "name": "_projectOwner",
          "type": "address"
        },
        {
          "internalType": "uint256",
          "name": "_fundingGoal",
          "type": "uint256"
        },
        {
          "internalType": "uint256",
          "name": "_fundingDuration",
          "type": "uint256"
        },
        {
          "internalType": "uint256",
          "name": "_totalStages",
          "type": "uint256"
        },
        {
          "internalType": "uint256[]",
          "name": "_stageAllocations",
          "type": "uint256[]"
        }
      ],
      "stateMutability": "nonpayable",
      "type": "constructor"
    },
    {
      "inputs": [
        {
          "internalType": "address",
          "name": "owner",
          "type": "address"
        }
      ],
      "name": "OwnableInvalidOwner",
      "type": "error"
    },
    {
      "inputs": [
        {
          "internalType": "address",
          "name": "account",
          "type": "address"
        }
      ],
      "name": "OwnableUnauthorizedAccount",
      "type": "error"
    },
    {
      "inputs": [],
      "name": "ReentrancyGuardReentrantCall",
      "type": "error"
    },
    {
      "anonymous": false,
      "inputs": [
        {
          "indexed": true,
          "internalType": "address",
          "name": "donor",
          "type": "address"
        },
        {
          "indexed": false,
          "internalType": "uint256",
          "name": "amount",
          "type": "uint256"
        },
        {
          "indexed": false,
          "internalType": "uint256",
          "name": "totalRaised",
          "type": "uint256"
        }
      ],
      "name": "DonationReceived",
      "type": "event"
    },
    {
      "anonymous": false,
      "inputs": [
        {
          "indexed": false,
          "internalType": "uint256",
          "name": "totalAmount",
          "type": "uint256"
        },
        {
          "indexed": false,
          "internalType": "uint256",
          "name": "timestamp",
          "type": "uint256"
        }
      ],
      "name": "FundingGoalReached",
      "type": "event"
    },
    {
      "anonymous": false,
      "inputs": [
        {
          "indexed": true,
          "internalType": "uint256",
          "name": "stageIndex",
          "type": "uint256"
        },
        {
          "indexed": false,
          "internalType": "uint256",
          "name": "amount",
          "type": "uint256"
        },
        {
          "indexed": true,
          "internalType": "address",
          "name": "recipient",
          "type": "address"
        }
      ],
      "name": "FundsReleased",
      "type": "event"
    },
    {
      "anonymous": false,
      "inputs": [
        {
          "indexed": true,
          "internalType": "address",
          "name": "governanceAddress",
          "type": "address"
        }
      ],
      "name": "GovernanceContractSet",
      "type": "event"
    },
    {
      "anonymous": false,
      "inputs": [
        {
          "indexed": true,
          "internalType": "address",
          "name": "previousOwner",
          "type": "address"
        },
        {
          "indexed": true,
          "internalType": "address",
          "name": "newOwner",
          "type": "address"
        }
      ],
      "name": "OwnershipTransferred",
      "type": "event"
    },
    {
      "anonymous": false,
      "inputs": [
        {
          "indexed": false,
          "internalType": "uint256",
          "name": "timestamp",
          "type": "uint256"
        }
      ],
      "name": "ProjectCancelled",
      "type": "event"
    },
    {
      "anonymous": false,
      "inputs": [
        {
          "indexed": true,
          "internalType": "address",
          "name": "donor",
          "type": "address"
        },
        {
          "indexed": false,
          "internalType": "uint256",
          "name": "amount",
          "type": "uint256"
        }
      ],
      "name": "RefundIssued",
      "type": "event"
    },
    {
      "inputs": [],
      "name": "cancelProject",
      "outputs": [],
      "stateMutability": "nonpayable",
      "type": "function"
    },
    {
      "inputs": [
        {
          "internalType": "address",
          "name": "",
          "type": "address"
        }
      ],
      "name": "contributions",
      "outputs": [
        {
          "internalType": "uint256",
          "name": "",
          "type": "uint256"
        }
      ],
      "stateMutability": "view",
      "type": "function"
    },
    {
      "inputs": [],
      "name": "currentStage",
      "outputs": [
        {
          "internalType": "uint256",
          "name": "",
          "type": "uint256"
        }
      ],
      "stateMutability": "view",
      "type": "function"
    },
    {
      "inputs": [],
      "name": "donate",
      "outputs": [],
      "stateMutability": "payable",
      "type": "function"
    },
    {
      "inputs": [
        {
          "internalType": "uint256",
          "name": "",
          "type": "uint256"
        }
      ],
      "name": "donors",
      "outputs": [
        {
          "internalType": "address",
          "name": "",
          "type": "address"
        }
      ],
      "stateMutability": "view",
      "type": "function"
    },
    {
      "inputs": [],
      "name": "fundingDeadline",
      "outputs": [
        {
          "internalType": "uint256",
          "name": "",
          "type": "uint256"
        }
      ],
      "stateMutability": "view",
      "type": "function"
    },
    {
      "inputs": [],
      "name": "fundingGoal",
      "outputs": [
        {
          "internalType": "uint256",
          "name": "",
          "type": "uint256"
        }
      ],
      "stateMutability": "view",
      "type": "function"
    },
    {
      "inputs": [],
      "name": "fundingGoalReached",
      "outputs": [
        {
          "internalType": "bool",
          "name": "",
          "type": "bool"
        }
      ],
      "stateMutability": "view",
      "type": "function"
    },
    {
      "inputs": [
        {
          "internalType": "uint256",
          "name": "",
          "type": "uint256"
        }
      ],
      "name": "fundsAllocatedPerStage",
      "outputs": [
        {
          "internalType": "uint256",
          "name": "",
          "type": "uint256"
        }
      ],
      "stateMutability": "view",
      "type": "function"
    },
    {
      "inputs": [],
      "name": "fundsRaised",
      "outputs": [
        {
          "internalType": "uint256",
          "name": "",
          "type": "uint256"
        }
      ],
      "stateMutability": "view",
      "type": "function"
    },
    {
      "inputs": [],
      "name": "getBalance",
      "outputs": [
        {
          "internalType": "uint256",
          "name": "",
          "type": "uint256"
        }
      ],
      "stateMutability": "view",
      "type": "function"
    },
    {
      "inputs": [
        {
          "internalType": "uint256",
          "name": "index",
          "type": "uint256"
        }
      ],
      "name": "getDonor",
      "outputs": [
        {
          "internalType": "address",
          "name": "",
          "type": "address"
        }
      ],
      "stateMutability": "view",
      "type": "function"
    },
    {
      "inputs": [],
      "name": "getDonorCount",
      "outputs": [
        {
          "internalType": "uint256",
          "name": "",
          "type": "uint256"
        }
      ],
      "stateMutability": "view",
      "type": "function"
    },
    {
      "inputs": [],
      "name": "getProjectStatus",
      "outputs": [
        {
          "internalType": "uint256",
          "name": "_fundsRaised",
          "type": "uint256"
        },
        {
          "internalType": "uint256",
          "name": "_fundingGoal",
          "type": "uint256"
        },
        {
          "internalType": "uint256",
          "name": "_currentStage",
          "type": "uint256"
        },
        {
          "internalType": "uint256",
          "name": "_totalStages",
          "type": "uint256"
        },
        {
          "internalType": "bool",
          "name": "_fundingGoalReached",
          "type": "bool"
        },
        {
          "internalType": "bool",
          "name": "_projectCancelled",
          "type": "bool"
        },
        {
          "internalType": "uint256",
          "name": "_timeRemaining",
          "type": "uint256"
        }
      ],
      "stateMutability": "view",
      "type": "function"
    },
    {
      "inputs": [
        {
          "internalType": "uint256",
          "name": "_stageIndex",
          "type": "uint256"
        }
      ],
      "name": "getStageAllocation",
      "outputs": [
        {
          "internalType": "uint256",
          "name": "",
          "type": "uint256"
        }
      ],
      "stateMutability": "view",
      "type": "function"
    },
    {
      "inputs": [],
      "name": "governanceContract",
      "outputs": [
        {
          "internalType": "address",
          "name": "",
          "type": "address"
        }
      ],
      "stateMutability": "view",
      "type": "function"
    },
    {
      "inputs": [
        {
          "internalType": "address",
          "name": "",
          "type": "address"
        }
      ],
      "name": "isDonor",
      "outputs": [
        {
          "internalType": "bool",
          "name": "",
          "type": "bool"
        }
      ],
      "stateMutability": "view",
      "type": "function"
    },
    {
      "inputs": [],
      "name": "owner",
      "outputs": [
        {
          "internalType": "address",
          "name": "",
          "type": "address"
        }
      ],
      "stateMutability": "view",
      "type": "function"
    },
    {
      "inputs": [],
      "name": "projectCancelled",
      "outputs": [
        {
          "internalType": "bool",
          "name": "",
          "type": "bool"
        }
      ],
      "stateMutability": "view",
      "type": "function"
    },
    {
      "inputs": [],
      "name": "projectOwner",
      "outputs": [
        {
          "internalType": "address",
          "name": "",
          "type": "address"
        }
      ],
      "stateMutability": "view",
      "type": "function"
    },
    {
      "inputs": [],
      "name": "refund",
      "outputs": [],
      "stateMutability": "nonpayable",
      "type": "function"
    },
    {
      "inputs": [
        {
          "internalType": "uint256",
          "name": "_stageIndex",
          "type": "uint256"
        }
      ],
      "name": "releaseFunds",
      "outputs": [],
      "stateMutability": "nonpayable",
      "type": "function"
    },
    {
      "inputs": [],
      "name": "renounceOwnership",
      "outputs": [],
      "stateMutability": "nonpayable",
      "type": "function"
    },
    {
      "inputs": [
        {
          "internalType": "address",
          "name": "_governanceContract",
          "type": "address"
        }
      ],
      "name": "setGovernanceContract",
      "outputs": [],
      "stateMutability": "nonpayable",
      "type": "function"
    },
    {
      "inputs": [
        {
          "internalType": "uint256",
          "name": "",
          "type": "uint256"
        }
      ],
      "name": "stageCompleted",
      "outputs": [
        {
          "internalType": "bool",
          "name": "",
          "type": "bool"
        }
      ],
      "stateMutability": "view",
      "type": "function"
    },
    {
      "inputs": [],
      "name": "totalStages",
      "outputs": [
        {
          "internalType": "uint256",
          "name": "",
          "type": "uint256"
        }
      ],
      "stateMutability": "view",
      "type": "function"
    },
    {
      "inputs": [
        {
          "internalType": "address",
          "name": "newOwner",
          "type": "address"
        }
      ],
      "name": "transferOwnership",
      "outputs": [],
      "stateMutability": "nonpayable",
      "type": "function"
    },
    {
      "stateMutability": "payable",
      "type": "receive"
    }
  ],
  "bytecode": "0x60806040523480156200001157600080fd5b506040516200187d3803806200187d8339810160408190526200003491620003fc565b600160005533806200006157604051631e4fbdf760e01b8152600060048201526024015b60405180910390fd5b6200006c8162000394565b506001600160a01b038516620000c55760405162461bcd60e51b815260206004820152601d60248201527f496e76616c69642070726f6a656374206f776e65722061646472657373000000604482015260640162000058565b60008411620001235760405162461bcd60e51b815260206004820152602360248201527f46756e64696e6720676f616c206d75737420626520677265617465722074686160448201526206e20360ec1b606482015260840162000058565b6003821015801562000136575060078211155b620001905760405162461bcd60e51b8152602060048201526024808201527f546f74616c20737461676573206d757374206265206265747765656e203320616044820152636e64203760e01b606482015260840162000058565b81815114620001f45760405162461bcd60e51b815260206004820152602960248201527f537461676520616c6c6f636174696f6e73206d757374206d6174636820746f74604482015268616c2073746167657360b81b606482015260840162000058565b6000805b8251811015620002e257600083828151811062000219576200021962000507565b602002602001015111620002705760405162461bcd60e51b815260206004820152601f60248201527f45616368207374616765206d757374206861766520616c6c6f636174696f6e00604482015260640162000058565b82818151811062000285576200028562000507565b6020026020010151826200029a919062000533565b9150828181518110620002b157620002b162000507565b6020908102919091018101516000838152600a90925260409091205580620002d9816200054f565b915050620001f8565b508061271014620003475760405162461bcd60e51b815260206004820152602860248201527f546f74616c20616c6c6f636174696f6e206d75737420657175616c2031303030604482015267302028313030252960c01b606482015260840162000058565b600280546001600160a01b0319166001600160a01b038816179055600485905562000373844262000533565b600555505060075550506000600855506009805461ffff191690556200056b565b600180546001600160a01b038381166001600160a01b0319831681179093556040519116919082907f8be0079c531659141344cd1fd0a4f28419497f9722a3daafe3b4186f6b6457e090600090a35050565b634e487b7160e01b600052604160045260246000fd5b600080600080600060a086880312156200041557600080fd5b85516001600160a01b03811681146200042d57600080fd5b602087810151604089015160608a015160808b015194995091975095509350906001600160401b03808211156200046357600080fd5b818901915089601f8301126200047857600080fd5b8151818111156200048d576200048d620003e6565b8060051b604051601f19603f83011681018181108582111715620004b557620004b5620003e6565b60405291825284820192508381018501918c831115620004d457600080fd5b938501935b82851015620004f457845184529385019392850192620004d9565b8096505050505050509295509295909350565b634e487b7160e01b600052603260045260246000fd5b634e487b7160e01b600052601160045260246000fd5b808201808211156200054957620005496200051d565b92915050565b6000600182016200056457620005646200051d565b5060010190565b611302806200057b6000396000f3fe6080604052600436106101a05760003560e01c806369bc2f1e116100ec578063cbe640be1161008a578063ed88c68e11610064578063ed88c68e1461051a578063f2fde38b14610522578063f86a352914610542578063fff8698e1461055857600080fd5b8063cbe640be14610482578063d424f628146104b2578063e7aa3afc146104cc57600080fd5b80637a3a0e84116100c65780637a3a0e841461040e5780638da5cb5b14610424578063a4475ce414610442578063b172b2221461046257600080fd5b806369bc2f1e146103ce578063715018a6146103e3578063796b23bb146103f857600080fd5b80634abfa163116101595780635bf5d54c116101335780635bf5d54c146103635780636136a90614610379578063667b0b38146103995780636681b9fd146103b857600080fd5b80634abfa163146102f65780634d68282f1461032e578063590e1ae31461034e57600080fd5b80631129753f1461020357806312065fe0146102255780631adff0ee146102475780632bc3d7aa1461025c57806342e94c901461029c578063485fc068146102c957600080fd5b366101fe5760405162461bcd60e51b815260206004820152602360248201527f55736520646f6e61746528292066756e6374696f6e20746f20636f6e7472696260448201526275746560e81b60648201526084015b60405180910390fd5b600080fd5b34801561020f57600080fd5b5061022361021e366004611199565b610578565b005b34801561023157600080fd5b50475b6040519081526020015b60405180910390f35b34801561025357600080fd5b50610223610679565b34801561026857600080fd5b5061028c610277366004611199565b600e6020526000908152604090205460ff1681565b604051901515815260200161023e565b3480156102a857600080fd5b506102346102b7366004611199565b600c6020526000908152604090205481565b3480156102d557600080fd5b506102346102e43660046111c9565b600a6020526000908152604090205481565b34801561030257600080fd5b506103166103113660046111c9565b610746565b6040516001600160a01b03909116815260200161023e565b34801561033a57600080fd5b506102236103493660046111c9565b610770565b34801561035a57600080fd5b50610223610ae5565b34801561036f57600080fd5b5061023460085481565b34801561038557600080fd5b506103166103943660046111c9565b610ca0565b3480156103a557600080fd5b5060095461028c90610100900460ff1681565b3480156103c457600080fd5b5061023460065481565b3480156103da57600080fd5b50600d54610234565b3480156103ef57600080fd5b50610223610d18565b34801561040457600080fd5b5061023460055481565b34801561041a57600080fd5b5061023460045481565b34801561043057600080fd5b506001546001600160a01b0316610316565b34801561044e57600080fd5b50600254610316906001600160a01b031681565b34801561046e57600080fd5b50600354610316906001600160a01b031681565b34801561048e57600080fd5b5061028c61049d3660046111c9565b600b6020526000908152604090205460ff1681565b3480156104be57600080fd5b5060095461028c9060ff1681565b3480156104d857600080fd5b506104e1610d2a565b60408051978852602088019690965294860193909352606085019190915215156080840152151560a083015260c082015260e00161023e565b610223610d87565b34801561052e57600080fd5b5061022361053d366004611199565b61103d565b34801561054e57600080fd5b5061023460075481565b34801561056457600080fd5b506102346105733660046111c9565b611078565b6105806110f0565b6003546001600160a01b0316156105d95760405162461bcd60e51b815260206004820152601f60248201527f476f7665726e616e636520636f6e747261637420616c7265616479207365740060448201526064016101f5565b6001600160a01b03811661062f5760405162461bcd60e51b815260206004820152601a60248201527f496e76616c696420676f7665726e616e6365206164647265737300000000000060448201526064016101f5565b600380546001600160a01b0319166001600160a01b0383169081179091556040517f2bf79e6c54fa8159bd63e520bd2627b8c9f7bba4561d8844d1f0eeb9f5684f7390600090a250565b6003546001600160a01b031633146106a35760405162461bcd60e51b81526004016101f5906111e2565b600954610100900460ff16156106fb5760405162461bcd60e51b815260206004820152601960248201527f50726f6a65637420616c72656164792063616e63656c6c65640000000000000060448201526064016101f5565b6009805461ff0019166101001790556040517fe3805ed669490875ae87c5c8b1ad6ecca0e5e67305a833926d0d4317c4822fc09061073c9042815260200190565b60405180910390a1565b600d818154811061075657600080fd5b6000918252602090912001546001600160a01b0316905081565b6003546001600160a01b0316331461079a5760405162461bcd60e51b81526004016101f5906111e2565b6107a261111d565b60095460ff166107f45760405162461bcd60e51b815260206004820152601860248201527f46756e64696e6720676f616c206e6f742072656163686564000000000000000060448201526064016101f5565b600754811061083b5760405162461bcd60e51b8152602060048201526013602482015272092dcecc2d8d2c840e6e8c2ceca40d2dcc8caf606b1b60448201526064016101f5565b6000818152600b602052604090205460ff16156108a85760405162461bcd60e51b815260206004820152602560248201527f46756e647320616c72656164792072656c656173656420666f72207468697320604482015264737461676560d81b60648201526084016101f5565b60085481146108f95760405162461bcd60e51b815260206004820152601d60248201527f4d75737420636f6d706c6574652073746167657320696e206f7264657200000060448201526064016101f5565b600954610100900460ff16156109515760405162461bcd60e51b815260206004820152601a60248201527f50726f6a65637420686173206265656e2063616e63656c6c656400000000000060448201526064016101f5565b6000818152600a6020526040812054600654612710916109709161123e565b61097a9190611255565b9050804710156109cc5760405162461bcd60e51b815260206004820152601d60248201527f496e73756666696369656e7420636f6e74726163742062616c616e636500000060448201526064016101f5565b6000828152600b60205260408120805460ff1916600117905560088054916109f383611277565b90915550506002546040516000916001600160a01b03169083908381818185875af1925050503d8060008114610a45576040519150601f19603f3d011682016040523d82523d6000602084013e610a4a565b606091505b5050905080610a925760405162461bcd60e51b8152602060048201526014602482015273119d5b99081d1c985b9cd9995c8819985a5b195960621b60448201526064016101f5565b6002546040518381526001600160a01b039091169084907f807158a396c8ce26fb6a4a44930e1b49876133ba7806dbaac491ea4713e4515e9060200160405180910390a35050610ae26001600055565b50565b610aed61111d565b6005544210158015610b02575060095460ff16155b80610b145750600954610100900460ff165b610b605760405162461bcd60e51b815260206004820152601960248201527f526566756e6420636f6e646974696f6e73206e6f74206d65740000000000000060448201526064016101f5565b336000908152600c602052604090205480610bbd5760405162461bcd60e51b815260206004820152601960248201527f4e6f20636f6e747269627574696f6e20746f20726566756e640000000000000060448201526064016101f5565b336000818152600c60205260408082208290555190919083908381818185875af1925050503d8060008114610c0e576040519150601f19603f3d011682016040523d82523d6000602084013e610c13565b606091505b5050905080610c5d5760405162461bcd60e51b81526020600482015260166024820152751499599d5b99081d1c985b9cd9995c8819985a5b195960521b60448201526064016101f5565b60405182815233907fa171b6942063c6f2800ce40a780edce37baa2b618571b11eedd1e69e626e7d769060200160405180910390a25050610c9e6001600055565b565b600d546000908210610cea5760405162461bcd60e51b8152602060048201526013602482015272496e646578206f7574206f6620626f756e647360681b60448201526064016101f5565b600d8281548110610cfd57610cfd611290565b6000918252602090912001546001600160a01b031692915050565b610d206110f0565b610c9e6000611147565b60008060008060008060008060009050600554421015610d555742600554610d5291906112a6565b90505b600654600454600854600754600954939c929b50909950975060ff808316975061010090920490911694509092509050565b6005544210610dd85760405162461bcd60e51b815260206004820152601860248201527f46756e64696e6720706572696f642068617320656e646564000000000000000060448201526064016101f5565b60095460ff1615610e2b5760405162461bcd60e51b815260206004820152601c60248201527f46756e64696e6720676f616c20616c726561647920726561636865640000000060448201526064016101f5565b600954610100900460ff1615610e835760405162461bcd60e51b815260206004820152601a60248201527f50726f6a65637420686173206265656e2063616e63656c6c656400000000000060448201526064016101f5565b610e8b61111d565b60003411610edb5760405162461bcd60e51b815260206004820152601f60248201527f446f6e6174696f6e206d7573742062652067726561746572207468616e20300060448201526064016101f5565b336000908152600e602052604090205460ff16610f4d57600d805460018181019092557fd7b6990105719101dabeb77144f2a3385c8033acd3af97e9423a695e81ad1eb50180546001600160a01b031916339081179091556000908152600e60205260409020805460ff191690911790555b336000908152600c602052604081208054349290610f6c9084906112b9565b925050819055503460066000828254610f8591906112b9565b909155505060065460405133917f4b0304ab2f313234b1cea012339c8f8c3bf2c8bb357d81a579cfdb35d2e3d03091610fc691348252602082015260400190565b60405180910390a260045460065410158015610fe5575060095460ff16155b15611033576009805460ff19166001179055600654604080519182524260208301527f5bc6714ccad33557efe1cb9d18fa771135ab68961f6add3d4bb6f115adec81a4910160405180910390a15b610c9e6001600055565b6110456110f0565b6001600160a01b03811661106f57604051631e4fbdf760e01b8152600060048201526024016101f5565b610ae281611147565b600060075482106110c15760405162461bcd60e51b8152602060048201526013602482015272092dcecc2d8d2c840e6e8c2ceca40d2dcc8caf606b1b60448201526064016101f5565b6000828152600a6020526040902054600654612710916110e09161123e565b6110ea9190611255565b92915050565b6001546001600160a01b03163314610c9e5760405163118cdaa760e01b81523360048201526024016101f5565b60026000540361114057604051633ee5aeb560e01b815260040160405180910390fd5b6002600055565b600180546001600160a01b038381166001600160a01b0319831681179093556040519116919082907f8be0079c531659141344cd1fd0a4f28419497f9722a3daafe3b4186f6b6457e090600090a35050565b6000602082840312156111ab57600080fd5b81356001600160a01b03811681146111c257600080fd5b9392505050565b6000602082840312156111db57600080fd5b5035919050565b60208082526026908201527f4f6e6c7920676f7665726e616e636520636f6e74726163742063616e2063616c6040820152656c207468697360d01b606082015260800190565b634e487b7160e01b600052601160045260246000fd5b80820281158282048414176110ea576110ea611228565b60008261127257634e487b7160e01b600052601260045260246000fd5b500490565b60006001820161128957611289611228565b5060010190565b634e487b7160e01b600052603260045260246000fd5b818103818111156110ea576110ea611228565b808201808211156110ea576110ea61122856fea2646970667358221220ec72f6abd10d49aafbc64df8401b1a1e3f569982d3a7692d3b91af696ab12e2f64736f6c63430008140033",
  "linkReferences": {},
  "deployedLinkReferences": {}
}