{
  "_format": "hh-sol-artifact-1",
  "contractName": "MilestoneGovernance",
  "sourceName": "contracts/MilestoneGovernance.sol",
  "abi": [
    {
      "inputs": [
        {
          "internalType": "address",
          "name": "_governanceToken",
          "type": "address"
        }
      ],
      "stateMutability": "nonpayable",
      "type": "constructor"
    },
    {
      "inputs": [],
      "name": "ReentrancyGuardReentrantCall",
      "type": "error"
    },
    {
      "anonymous": false,
      "inputs": [
        {
          "indexed": true,
          "internalType": "uint256",
          "name": "proposalId",
          "type": "uint256"
        },
        {
          "indexed": false,
          "internalType": "uint256",
          "name": "votesFor",
          "type": "uint256"
        },
        {
          "indexed": false,
          "internalType": "uint256",
          "name": "votesAgainst",
          "type": "uint256"
        }
      ],
      "name": "ProposalApproved",
      "type": "event"
    },
    {
      "anonymous": false,
      "inputs": [
        {
          "indexed": true,
          "internalType": "uint256",
          "name": "proposalId",
          "type": "uint256"
        },
        {
          "indexed": true,
          "internalType": "uint256",
          "name": "stageIndex",
          "type": "uint256"
        },
        {
          "indexed": true,
          "internalType": "address",
          "name": "escrowContract",
          "type": "address"
        },
        {
          "indexed": false,
          "internalType": "string",
          "name": "evidenceHash",
          "type": "string"
        }
      ],
      "name": "ProposalCreated",
      "type": "event"
    },
    {
      "anonymous": false,
      "inputs": [
        {
          "indexed": true,
          "internalType": "uint256",
          "name": "proposalId",
          "type": "uint256"
        },
        {
          "indexed": false,
          "internalType": "bool",
          "name": "success",
          "type": "bool"
        }
      ],
      "name": "ProposalExecuted",
      "type": "event"
    },
    {
      "anonymous": false,
      "inputs": [
        {
          "indexed": true,
          "internalType": "uint256",
          "name": "proposalId",
          "type": "uint256"
        },
        {
          "indexed": false,
          "internalType": "uint256",
          "name": "votesFor",
          "type": "uint256"
        },
        {
          "indexed": false,
          "internalType": "uint256",
          "name": "votesAgainst",
          "type": "uint256"
        }
      ],
      "name": "ProposalRejected",
      "type": "event"
    },
    {
      "anonymous": false,
      "inputs": [
        {
          "indexed": true,
          "internalType": "address",
          "name": "voter",
          "type": "address"
        },
        {
          "indexed": false,
          "internalType": "uint256",
          "name": "amount",
          "type": "uint256"
        },
        {
          "indexed": false,
          "internalType": "uint256",
          "name": "totalStake",
          "type": "uint256"
        }
      ],
      "name": "StakeAdded",
      "type": "event"
    },
    {
      "anonymous": false,
      "inputs": [
        {
          "indexed": true,
          "internalType": "address",
          "name": "voter",
          "type": "address"
        },
        {
          "indexed": false,
          "internalType": "uint256",
          "name": "amount",
          "type": "uint256"
        }
      ],
      "name": "StakeWithdrawn",
      "type": "event"
    },
    {
      "anonymous": false,
      "inputs": [
        {
          "indexed": true,
          "internalType": "uint256",
          "name": "proposalId",
          "type": "uint256"
        },
        {
          "indexed": true,
          "internalType": "address",
          "name": "voter",
          "type": "address"
        },
        {
          "indexed": false,
          "internalType": "bool",
          "name": "inFavor",
          "type": "bool"
        },
        {
          "indexed": false,
          "internalType": "uint256",
          "name": "weight",
          "type": "uint256"
        }
      ],
      "name": "VoteCast",
      "type": "event"
    },
    {
      "anonymous": false,
      "inputs": [
        {
          "indexed": true,
          "internalType": "address",
          "name": "voter",
          "type": "address"
        },
        {
          "indexed": false,
          "internalType": "uint256",
          "name": "stakedAmount",
          "type": "uint256"
        }
      ],
      "name": "VoterRegistered",
      "type": "event"
    },
    {
      "inputs": [],
      "name": "MINIMUM_STAKE",
      "outputs": [
        {
          "internalType": "uint256",
          "name": "",
          "type": "uint256"
        }
      ],
      "stateMutability": "view",
      "type": "function"
    },
    {
      "inputs": [],
      "name": "QUORUM_PERCENTAGE",
      "outputs": [
        {
          "internalType": "uint256",
          "name": "",
          "type": "uint256"
        }
      ],
      "stateMutability": "view",
      "type": "function"
    },
    {
      "inputs": [],
      "name": "VOTING_PERIOD",
      "outputs": [
        {
          "internalType": "uint256",
          "name": "",
          "type": "uint256"
        }
      ],
      "stateMutability": "view",
      "type": "function"
    },
    {
      "inputs": [],
      "name": "addStake",
      "outputs": [],
      "stateMutability": "payable",
      "type": "function"
    },
    {
      "inputs": [
        {
          "internalType": "uint256",
          "name": "_amount",
          "type": "uint256"
        }
      ],
      "name": "addStakeWithTokens",
      "outputs": [],
      "stateMutability": "nonpayable",
      "type": "function"
    },
    {
      "inputs": [
        {
          "internalType": "address",
          "name": "_escrowContract",
          "type": "address"
        },
        {
          "internalType": "uint256",
          "name": "_stageIndex",
          "type": "uint256"
        },
        {
          "internalType": "string",
          "name": "_evidenceHash",
          "type": "string"
        }
      ],
      "name": "createMilestoneProposal",
      "outputs": [
        {
          "internalType": "uint256",
          "name": "",
          "type": "uint256"
        }
      ],
      "stateMutability": "nonpayable",
      "type": "function"
    },
    {
      "inputs": [
        {
          "internalType": "uint256",
          "name": "_proposalId",
          "type": "uint256"
        }
      ],
      "name": "executeProposal",
      "outputs": [],
      "stateMutability": "nonpayable",
      "type": "function"
    },
    {
      "inputs": [
        {
          "internalType": "uint256",
          "name": "_proposalId",
          "type": "uint256"
        }
      ],
      "name": "getProposal",
      "outputs": [
        {
          "internalType": "uint256",
          "name": "id",
          "type": "uint256"
        },
        {
          "internalType": "uint256",
          "name": "stageIndex",
          "type": "uint256"
        },
        {
          "internalType": "address",
          "name": "projectOwner",
          "type": "address"
        },
        {
          "internalType": "address",
          "name": "escrowContract",
          "type": "address"
        },
        {
          "internalType": "string",
          "name": "evidenceHash",
          "type": "string"
        },
        {
          "internalType": "uint256",
          "name": "votesFor",
          "type": "uint256"
        },
        {
          "internalType": "uint256",
          "name": "votesAgainst",
          "type": "uint256"
        },
        {
          "internalType": "uint256",
          "name": "startTime",
          "type": "uint256"
        },
        {
          "internalType": "uint256",
          "name": "endTime",
          "type": "uint256"
        },
        {
          "internalType": "enum MilestoneGovernance.ProposalStatus",
          "name": "status",
          "type": "uint8"
        },
        {
          "internalType": "bool",
          "name": "executed",
          "type": "bool"
        }
      ],
      "stateMutability": "view",
      "type": "function"
    },
    {
      "inputs": [],
      "name": "getTotalStaked",
      "outputs": [
        {
          "internalType": "uint256",
          "name": "",
          "type": "uint256"
        }
      ],
      "stateMutability": "view",
      "type": "function"
    },
    {
      "inputs": [
        {
          "internalType": "address",
          "name": "_voter",
          "type": "address"
        }
      ],
      "name": "getVoterInfo",
      "outputs": [
        {
          "internalType": "uint256",
          "name": "stakedAmount",
          "type": "uint256"
        },
        {
          "internalType": "uint256",
          "name": "reputation",
          "type": "uint256"
        },
        {
          "internalType": "bool",
          "name": "isRegistered",
          "type": "bool"
        },
        {
          "internalType": "uint256",
          "name": "proposalCount",
          "type": "uint256"
        }
      ],
      "stateMutability": "view",
      "type": "function"
    },
    {
      "inputs": [],
      "name": "governanceToken",
      "outputs": [
        {
          "internalType": "contract IERC20",
          "name": "",
          "type": "address"
        }
      ],
      "stateMutability": "view",
      "type": "function"
    },
    {
      "inputs": [
        {
          "internalType": "uint256",
          "name": "_proposalId",
          "type": "uint256"
        },
        {
          "internalType": "address",
          "name": "_voter",
          "type": "address"
        }
      ],
      "name": "hasVoted",
      "outputs": [
        {
          "internalType": "bool",
          "name": "",
          "type": "bool"
        }
      ],
      "stateMutability": "view",
      "type": "function"
    },
    {
      "inputs": [],
      "name": "proposalCount",
      "outputs": [
        {
          "internalType": "uint256",
          "name": "",
          "type": "uint256"
        }
      ],
      "stateMutability": "view",
      "type": "function"
    },
    {
      "inputs": [
        {
          "internalType": "uint256",
          "name": "",
          "type": "uint256"
        }
      ],
      "name": "proposals",
      "outputs": [
        {
          "internalType": "uint256",
          "name": "id",
          "type": "uint256"
        },
        {
          "internalType": "uint256",
          "name": "stageIndex",
          "type": "uint256"
        },
        {
          "internalType": "address",
          "name": "projectOwner",
          "type": "address"
        },
        {
          "internalType": "address",
          "name": "escrowContract",
          "type": "address"
        },
        {
          "internalType": "string",
          "name": "evidenceHash",
          "type": "string"
        },
        {
          "internalType": "uint256",
          "name": "votesFor",
          "type": "uint256"
        },
        {
          "internalType": "uint256",
          "name": "votesAgainst",
          "type": "uint256"
        },
        {
          "internalType": "uint256",
          "name": "startTime",
          "type": "uint256"
        },
        {
          "internalType": "uint256",
          "name": "endTime",
          "type": "uint256"
        },
        {
          "internalType": "enum MilestoneGovernance.ProposalStatus",
          "name": "status",
          "type": "uint8"
        },
        {
          "internalType": "bool",
          "name": "executed",
          "type": "bool"
        }
      ],
      "stateMutability": "view",
      "type": "function"
    },
    {
      "inputs": [],
      "name": "registerVoter",
      "outputs": [],
      "stateMutability": "payable",
      "type": "function"
    },
    {
      "inputs": [
        {
          "internalType": "uint256",
          "name": "_amount",
          "type": "uint256"
        }
      ],
      "name": "registerVoterWithTokens",
      "outputs": [],
      "stateMutability": "nonpayable",
      "type": "function"
    },
    {
      "inputs": [],
      "name": "useTokenStaking",
      "outputs": [
        {
          "internalType": "bool",
          "name": "",
          "type": "bool"
        }
      ],
      "stateMutability": "view",
      "type": "function"
    },
    {
      "inputs": [
        {
          "internalType": "uint256",
          "name": "_proposalId",
          "type": "uint256"
        },
        {
          "internalType": "bool",
          "name": "_inFavor",
          "type": "bool"
        }
      ],
      "name": "vote",
      "outputs": [],
      "stateMutability": "nonpayable",
      "type": "function"
    },
    {
      "inputs": [
        {
          "internalType": "address",
          "name": "",
          "type": "address"
        },
        {
          "internalType": "uint256",
          "name": "",
          "type": "uint256"
        }
      ],
      "name": "voterProposals",
      "outputs": [
        {
          "internalType": "uint256",
          "name": "",
          "type": "uint256"
        }
      ],
      "stateMutability": "view",
      "type": "function"
    },
    {
      "inputs": [
        {
          "internalType": "address",
          "name": "",
          "type": "address"
        }
      ],
      "name": "voters",
      "outputs": [
        {
          "internalType": "uint256",
          "name": "stakedAmount",
          "type": "uint256"
        },
        {
          "internalType": "uint256",
          "name": "reputation",
          "type": "uint256"
        },
        {
          "internalType": "bool",
          "name": "isRegistered",
          "type": "bool"
        }
      ],
      "stateMutability": "view",
      "type": "function"
    },
    {
      "inputs": [],
      "name": "withdrawStake",
      "outputs": [],
      "stateMutability": "nonpayable",
      "type": "function"
    }
  ],
  "bytecode": "0x60806040523480156200001157600080fd5b506040516200245238038062002452833981016040819052620000349162000085565b60016000556001600160a01b038116156200007057600280546001600160a81b0319166001600160a01b03831617600160a01b1790556200007e565b6002805460ff60a01b191690555b50620000b7565b6000602082840312156200009857600080fd5b81516001600160a01b0381168114620000b057600080fd5b9392505050565b61238b80620000c76000396000f3fe60806040526004361061012a5760003560e01c8063b1610d7e116100ab578063d065ebee1161006f578063d065ebee146103c6578063da35c664146103e6578063dfe2f74e146103fc578063ecb617d91461041d578063ee8a7c1514610425578063f96dae0a1461043a57600080fd5b8063b1610d7e1461033a578063b337a4aa14610351578063bed9d86114610371578063c7f758a814610386578063c9d27afe146103a657600080fd5b80632eb96007116100f25780632eb96007146101ef578063438596321461020f5780635a627dbc1461023f5780639ed1f25514610247578063a3ec138d146102de57600080fd5b8063013cf08b1461012f57806308dbbb031461016f5780630917e776146101985780630d61b519146101ad578063120ce903146101cf575b600080fd5b34801561013b57600080fd5b5061014f61014a366004611d91565b610472565b6040516101669b9a99989796959493929190611e06565b60405180910390f35b34801561017b57600080fd5b5061018a662386f26fc1000081565b604051908152602001610166565b3480156101a457600080fd5b5061018a610565565b3480156101b957600080fd5b506101cd6101c8366004611d91565b6105f0565b005b3480156101db57600080fd5b5061018a6101ea366004611eb8565b61093b565b3480156101fb57600080fd5b506101cd61020a366004611d91565b61096c565b34801561021b57600080fd5b5061022f61022a366004611ee4565b610b84565b6040519015158152602001610166565b6101cd610bd9565b34801561025357600080fd5b506102b8610262366004611f14565b6001600160a01b038116600081815260046020908152604080832081516060810183528154808252600183015482860181905260029093015460ff16151591840182905295855260059093529220549193509193565b604080519485526020850193909352901515918301919091526060820152608001610166565b3480156102ea57600080fd5b5061031d6102f9366004611f14565b60046020526000908152604090208054600182015460029092015490919060ff1683565b604080519384526020840192909252151590820152606001610166565b34801561034657600080fd5b5061018a62093a8081565b34801561035d57600080fd5b506101cd61036c366004611d91565b610d76565b34801561037d57600080fd5b506101cd610f8d565b34801561039257600080fd5b5061014f6103a1366004611d91565b611322565b3480156103b257600080fd5b506101cd6103c1366004611f46565b611470565b3480156103d257600080fd5b5061018a6103e1366004611f81565b611741565b3480156103f257600080fd5b5061018a60015481565b34801561040857600080fd5b5060025461022f90600160a01b900460ff1681565b6101cd611bbf565b34801561043157600080fd5b5061018a603381565b34801561044657600080fd5b5060025461045a906001600160a01b031681565b6040516001600160a01b039091168152602001610166565b600360208190526000918252604090912080546001820154600283015493830154600484018054939592946001600160a01b039384169493909216926104b79061204e565b80601f01602080910402602001604051908101604052809291908181526020018280546104e39061204e565b80156105305780601f1061050557610100808354040283529160200191610530565b820191906000526020600020905b81548152906001019060200180831161051357829003601f168201915b505050600584015460068501546007860154600887015460099097015495969295919450925060ff808216916101009004168b565b600254600090600160a01b900460ff16156105eb576002546040516370a0823160e01b81523060048201526001600160a01b03909116906370a0823190602401602060405180830381865afa1580156105c2573d6000803e3d6000fd5b505050506040513d601f19601f820116820180604052508101906105e69190612088565b905090565b504790565b80600154811061061b5760405162461bcd60e51b8152600401610612906120a1565b60405180910390fd5b610623611d67565b60008281526003602052604090206001600982015460ff16600481111561064c5761064c611df0565b1461068f5760405162461bcd60e51b815260206004820152601360248201527250726f706f73616c206e6f742061637469766560681b6044820152606401610612565b806008015442116106e25760405162461bcd60e51b815260206004820152601760248201527f566f74696e6720706572696f64206e6f7420656e6465640000000000000000006044820152606401610612565b6009810154610100900460ff161561073c5760405162461bcd60e51b815260206004820152601960248201527f50726f706f73616c20616c7265616479206578656375746564000000000000006044820152606401610612565b60008160060154826005015461075291906120ee565b60038301549091506001600160a01b0316476000610771603383612107565b61077c856064612107565b10159050808015610794575084600601548560050154115b156108d05760098501805461ffff19166101021790556001850154604051634d68282f60e01b815260048101919091526001600160a01b03841690634d68282f90602401600060405180830381600087803b1580156107f257600080fd5b505af1925050508015610803575060015b6108525760098501805460ff191660031790556040516000815287907f948f4a9cd986f1118c3fbd459f7a22b23c0693e1ca3ef06a6a8be5aa7d39cc03906020015b60405180910390a2610928565b867f15111638ab837c70006588f33d6177f797f6964f0cddd57a4d990278f659f1db86600501548760060154604051610895929190918252602082015260400190565b60405180910390a26040516001815287907f948f4a9cd986f1118c3fbd459f7a22b23c0693e1ca3ef06a6a8be5aa7d39cc0390602001610845565b60098501805461ffff19166101031790556005850154600686015460408051928352602083019190915288917fb0967ba441f2ba29da15d60ec8ed49598715c2155a0e370e36d91bd861066937910160405180910390a25b50505050506109376001600055565b5050565b6005602052816000526040600020818154811061095757600080fd5b90600052602060002001600091509150505481565b3360009081526004602052604090206002015460ff1661099e5760405162461bcd60e51b81526004016106129061211e565b33600090815260046020526040902054662386f26fc1000011156109d45760405162461bcd60e51b81526004016106129061214e565b600254600160a01b900460ff16610a2d5760405162461bcd60e51b815260206004820181905260248201527f5468697320676f7665726e616e6365207573657320455448207374616b696e676044820152606401610612565b60008111610a7d5760405162461bcd60e51b815260206004820152601c60248201527f4d757374207374616b65206120706f73697469766520616d6f756e74000000006044820152606401610612565b6002546040516323b872dd60e01b8152336004820152306024820152604481018390526001600160a01b03909116906323b872dd906064016020604051808303816000875af1158015610ad4573d6000803e3d6000fd5b505050506040513d601f19601f82011682018060405250810190610af8919061217a565b610b145760405162461bcd60e51b815260040161061290612197565b3360009081526004602052604081208054839290610b339084906120ee565b909155505033600081815260046020908152604091829020548251858152918201527f270d6dd254edd1d985c81cf7861b8f28fb06b6d719df04d90464034d4341244091015b60405180910390a250565b6000826001548110610ba85760405162461bcd60e51b8152600401610612906120a1565b505060009182526003602090815260408084206001600160a01b03939093168452600a909201905290205460ff1690565b3360009081526004602052604090206002015460ff16610c0b5760405162461bcd60e51b81526004016106129061211e565b33600090815260046020526040902054662386f26fc100001115610c415760405162461bcd60e51b81526004016106129061214e565b600254600160a01b900460ff1615610cb75760405162461bcd60e51b815260206004820152603360248201527f557365206164645374616b6557697468546f6b656e73282920666f7220746f6b604482015272656e2d626173656420676f7665726e616e636560681b6064820152608401610612565b60003411610d075760405162461bcd60e51b815260206004820152601c60248201527f4d757374207374616b65206120706f73697469766520616d6f756e74000000006044820152606401610612565b3360009081526004602052604081208054349290610d269084906120ee565b909155505033600081815260046020908152604091829020548251348152918201527f270d6dd254edd1d985c81cf7861b8f28fb06b6d719df04d90464034d4341244091015b60405180910390a2565b600254600160a01b900460ff16610dcf5760405162461bcd60e51b815260206004820181905260248201527f5468697320676f7665726e616e6365207573657320455448207374616b696e676044820152606401610612565b3360009081526004602052604090206002015460ff1615610e275760405162461bcd60e51b8152602060048201526012602482015271105b1c9958591e481c9959da5cdd195c995960721b6044820152606401610612565b662386f26fc10000811015610e7a5760405162461bcd60e51b8152602060048201526019602482015278125b9cdd59999a58da595b9d081cdd185ad948185b5bdd5b9d603a1b6044820152606401610612565b6002546040516323b872dd60e01b8152336004820152306024820152604481018390526001600160a01b03909116906323b872dd906064016020604051808303816000875af1158015610ed1573d6000803e3d6000fd5b505050506040513d601f19601f82011682018060405250810190610ef5919061217a565b610f115760405162461bcd60e51b815260040161061290612197565b604080516060810182528281526064602080830191825260018385018181523360008181526004855287902095518655935191850191909155516002909301805460ff19169315159390931790925591518381527ff16ce2c2236e2c6e3df646f80d657bceef4cd7f3a240c47e82adfa17a5f472419101610b79565b3360009081526004602052604090206002015460ff16610fbf5760405162461bcd60e51b81526004016106129061211e565b33600090815260046020526040902054662386f26fc100001115610ff55760405162461bcd60e51b81526004016106129061214e565b610ffd611d67565b33600090815260046020526040902054806110515760405162461bcd60e51b81526020600482015260146024820152734e6f207374616b6520746f20776974686472617760601b6044820152606401610612565b336000908152600560209081526040808320805482518185028101850190935280835291929091908301828280156110a857602002820191906000526020600020905b815481526020019060010190808311611094575b5050505050905060005b8151811015611189576000600360008484815181106110d3576110d36121c6565b602002602001015181526020019081526020016000209050600160048111156110fe576110fe611df0565b600982015460ff16600481111561111757611117611df0565b036111765760405162461bcd60e51b815260206004820152602960248201527f43616e6e6f74207769746864726177207768696c6520686176696e672061637460448201526869766520766f74657360b81b6064820152608401610612565b5080611181816121dc565b9150506110b2565b503360009081526004602052604081209081556002908101805460ff1916905554600160a01b900460ff161561124f5760025460405163a9059cbb60e01b8152336004820152602481018490526001600160a01b039091169063a9059cbb906044016020604051808303816000875af115801561120a573d6000803e3d6000fd5b505050506040513d601f19601f8201168201806040525081019061122e919061217a565b61124a5760405162461bcd60e51b815260040161061290612197565b6112df565b604051600090339084908381818185875af1925050503d8060008114611291576040519150601f19603f3d011682016040523d82523d6000602084013e611296565b606091505b50509050806112dd5760405162461bcd60e51b8152602060048201526013602482015272115512081d1c985b9cd9995c8819985a5b1959606a1b6044820152606401610612565b505b60405182815233907f8108595eb6bad3acefa9da467d90cc2217686d5c5ac85460f8b7849c840645fc9060200160405180910390a250506113206001600055565b565b60008060008060606000806000806000808b60015481106113555760405162461bcd60e51b8152600401610612906120a1565b60008d81526003602081905260409091208054600182015460028301549383015460058401546006850154600786015460088701546009880154600489018054999a989997986001600160a01b039081169897169690959493929160ff80821692610100909204169087906113c99061204e565b80601f01602080910402602001604051908101604052809291908181526020018280546113f59061204e565b80156114425780601f1061141757610100808354040283529160200191611442565b820191906000526020600020905b81548152906001019060200180831161142557829003601f168201915b505050505096509c509c509c509c509c509c509c509c509c509c509c50505091939597999b90929496989a50565b3360009081526004602052604090206002015460ff166114a25760405162461bcd60e51b81526004016106129061211e565b33600090815260046020526040902054662386f26fc1000011156114d85760405162461bcd60e51b81526004016106129061214e565b8160015481106114fa5760405162461bcd60e51b8152600401610612906120a1565b611502611d67565b60008381526003602052604090206001600982015460ff16600481111561152b5761152b611df0565b1461156e5760405162461bcd60e51b815260206004820152601360248201527250726f706f73616c206e6f742061637469766560681b6044820152606401610612565b80600801544211156115b85760405162461bcd60e51b8152602060048201526013602482015272159bdd1a5b99c81c195c9a5bd908195b991959606a1b6044820152606401610612565b336000908152600a8201602052604090205460ff161561161a5760405162461bcd60e51b815260206004820152601e60248201527f416c726561647920766f746564206f6e20746869732070726f706f73616c00006044820152606401610612565b3360009081526004602052604081206001015460649061164290670de0b6b3a7640000612107565b61164c91906121f5565b3360009081526004602052604090205461166691906120ee565b336000908152600a840160209081526040808320805460ff191660019081179091556004835281842054600b880184528285205560058352908320805491820181558352912001869055905083156116d757808260050160008282546116cc91906120ee565b909155506116f19050565b808260060160008282546116eb91906120ee565b90915550505b60408051851515815260208101839052339187917fcbdf6214089cba887ecbf35a0b6a734589959c9763342c756bb2a80ca2bc9f6e910160405180910390a3505061173c6001600055565b505050565b60006001600160a01b0384166117925760405162461bcd60e51b8152602060048201526016602482015275496e76616c696420657363726f77206164647265737360501b6044820152606401610612565b60008251116117dc5760405162461bcd60e51b8152602060048201526016602482015275115d9a59195b98d9481a185cda081c995c5d5a5c995960521b6044820152606401610612565b6000849050806001600160a01b031663a4475ce46040518163ffffffff1660e01b8152600401602060405180830381865afa15801561181f573d6000803e3d6000fd5b505050506040513d601f19601f820116820180604052508101906118439190612217565b6001600160a01b0316336001600160a01b0316146118b25760405162461bcd60e51b815260206004820152602660248201527f4f6e6c792070726f6a656374206f776e65722063616e206372656174652070726044820152651bdc1bdcd85b60d21b6064820152608401610612565b806001600160a01b031663d424f6286040518163ffffffff1660e01b8152600401602060405180830381865afa1580156118f0573d6000803e3d6000fd5b505050506040513d601f19601f82011682018060405250810190611914919061217a565b6119605760405162461bcd60e51b815260206004820152601860248201527f46756e64696e6720676f616c206e6f74207265616368656400000000000000006044820152606401610612565b6040516365f3205f60e11b8152600481018590526001600160a01b0382169063cbe640be90602401602060405180830381865afa1580156119a5573d6000803e3d6000fd5b505050506040513d601f19601f820116820180604052508101906119c9919061217a565b15611a165760405162461bcd60e51b815260206004820152601760248201527f537461676520616c726561647920636f6d706c657465640000000000000000006044820152606401610612565b806001600160a01b0316635bf5d54c6040518163ffffffff1660e01b8152600401602060405180830381865afa158015611a54573d6000803e3d6000fd5b505050506040513d601f19601f82011682018060405250810190611a789190612088565b8414611ac65760405162461bcd60e51b815260206004820152601d60248201527f4d75737420636f6d706c6574652073746167657320696e206f726465720000006044820152606401610612565b6001805460009182611ad7836121dc565b90915550600081815260036020819052604090912082815560018101889055600281018054336001600160a01b03199182161790915591810180549092166001600160a01b038a161790915590915060048101611b348682612282565b5060006005820181905560068201554260078201819055611b599062093a80906120ee565b600882015560098101805461ffff191660011790556040516001600160a01b03881690879084907f6f3322e9e9bcd9739d7dcbb73278ee28b363d39f7900bd404831ee8dfb41608e90611bad908a90612342565b60405180910390a45095945050505050565b3360009081526004602052604090206002015460ff1615611c175760405162461bcd60e51b8152602060048201526012602482015271105b1c9958591e481c9959da5cdd195c995960721b6044820152606401610612565b600254600160a01b900460ff1615611c975760405162461bcd60e51b815260206004820152603860248201527f557365207265676973746572566f74657257697468546f6b656e73282920666f60448201527f7220746f6b656e2d626173656420676f7665726e616e636500000000000000006064820152608401610612565b662386f26fc10000341015611cea5760405162461bcd60e51b8152602060048201526019602482015278125b9cdd59999a58da595b9d081cdd185ad948185b5bdd5b9d603a1b6044820152606401610612565b60408051606081018252348082526064602080840191825260018486018181523360008181526004855288902096518755935191860191909155516002909401805460ff19169415159490941790935592519081527ff16ce2c2236e2c6e3df646f80d657bceef4cd7f3a240c47e82adfa17a5f472419101610d6c565b600260005403611d8a57604051633ee5aeb560e01b815260040160405180910390fd5b6002600055565b600060208284031215611da357600080fd5b5035919050565b6000815180845260005b81811015611dd057602081850181015186830182015201611db4565b506000602082860101526020601f19601f83011685010191505092915050565b634e487b7160e01b600052602160045260246000fd5b8b8152602081018b90526001600160a01b038a811660408301528916606082015261016060808201819052600090611e408382018b611daa565b9150508760a08301528660c08301528560e08301528461010083015260058410611e7a57634e487b7160e01b600052602160045260246000fd5b83610120830152611e9061014083018415159052565b9c9b505050505050505050505050565b6001600160a01b0381168114611eb557600080fd5b50565b60008060408385031215611ecb57600080fd5b8235611ed681611ea0565b946020939093013593505050565b60008060408385031215611ef757600080fd5b823591506020830135611f0981611ea0565b809150509250929050565b600060208284031215611f2657600080fd5b8135611f3181611ea0565b9392505050565b8015158114611eb557600080fd5b60008060408385031215611f5957600080fd5b823591506020830135611f0981611f38565b634e487b7160e01b600052604160045260246000fd5b600080600060608486031215611f9657600080fd5b8335611fa181611ea0565b925060208401359150604084013567ffffffffffffffff80821115611fc557600080fd5b818601915086601f830112611fd957600080fd5b813581811115611feb57611feb611f6b565b604051601f8201601f19908116603f0116810190838211818310171561201357612013611f6b565b8160405282815289602084870101111561202c57600080fd5b8260208601602083013760006020848301015280955050505050509250925092565b600181811c9082168061206257607f821691505b60208210810361208257634e487b7160e01b600052602260045260246000fd5b50919050565b60006020828403121561209a57600080fd5b5051919050565b60208082526017908201527f50726f706f73616c20646f6573206e6f74206578697374000000000000000000604082015260600190565b634e487b7160e01b600052601160045260246000fd5b80820180821115612101576121016120d8565b92915050565b8082028115828204841417612101576121016120d8565b6020808252601690820152752737ba1030903932b3b4b9ba32b932b2103b37ba32b960511b604082015260600190565b602080825260129082015271496e73756666696369656e74207374616b6560701b604082015260600190565b60006020828403121561218c57600080fd5b8151611f3181611f38565b602080825260159082015274151bdad95b881d1c985b9cd9995c8819985a5b1959605a1b604082015260600190565b634e487b7160e01b600052603260045260246000fd5b6000600182016121ee576121ee6120d8565b5060010190565b60008261221257634e487b7160e01b600052601260045260246000fd5b500490565b60006020828403121561222957600080fd5b8151611f3181611ea0565b601f82111561173c57600081815260208120601f850160051c8101602086101561225b5750805b601f850160051c820191505b8181101561227a57828155600101612267565b505050505050565b815167ffffffffffffffff81111561229c5761229c611f6b565b6122b0816122aa845461204e565b84612234565b602080601f8311600181146122e557600084156122cd5750858301515b600019600386901b1c1916600185901b17855561227a565b600085815260208120601f198616915b82811015612314578886015182559484019460019091019084016122f5565b50858210156123325787850151600019600388901b60f8161c191681555b5050505050600190811b01905550565b602081526000611f316020830184611daa56fea264697066735822122006c6cdec1f672a1ac5c2908669f1384b6d52980e0c6feca353a61e82d768a22864736f6c63430008140033",
  "linkReferences": {},
  "deployedLinkReferences": {}
}