{
  "_format": "hh-sol-artifact-1",
  "contractName": "MilestoneGovernance",
  "sourceName": "contracts/MilestoneGovernance.sol",
  "abi": [
    {
      "inputs": [
        {
          "internalType": "contract IFundingEscrow",
          "name": "_escrow",
          "type": "address"
        },
        {
          "internalType": "uint64",
          "name": "_votingPeriod",
          "type": "uint64"
        },
        {
          "internalType": "uint16",
          "name": "_quorumBasisPoints",
          "type": "uint16"
        }
      ],
      "stateMutability": "nonpayable",
      "type": "constructor"
    },
    {
      "inputs": [],
      "name": "AlreadyVoted",
      "type": "error"
    },
    {
      "inputs": [],
      "name": "EscrowInactive",
      "type": "error"
    },
    {
      "inputs": [],
      "name": "InvalidQuorum",
      "type": "error"
    },
    {
      "inputs": [],
      "name": "InvalidStage",
      "type": "error"
    },
    {
      "inputs": [],
      "name": "ReentrancyGuardReentrantCall",
      "type": "error"
    },
    {
      "inputs": [],
      "name": "Unauthorized",
      "type": "error"
    },
    {
      "inputs": [],
      "name": "VotingClosed",
      "type": "error"
    },
    {
      "anonymous": false,
      "inputs": [
        {
          "indexed": true,
          "internalType": "uint256",
          "name": "proposalId",
          "type": "uint256"
        }
      ],
      "name": "ProposalCancelled",
      "type": "event"
    },
    {
      "anonymous": false,
      "inputs": [
        {
          "indexed": true,
          "internalType": "uint256",
          "name": "proposalId",
          "type": "uint256"
        },
        {
          "indexed": true,
          "internalType": "uint256",
          "name": "stageIndex",
          "type": "uint256"
        },
        {
          "indexed": false,
          "internalType": "uint64",
          "name": "votingStart",
          "type": "uint64"
        },
        {
          "indexed": false,
          "internalType": "uint64",
          "name": "votingEnd",
          "type": "uint64"
        },
        {
          "indexed": false,
          "internalType": "string",
          "name": "metadataURI",
          "type": "string"
        }
      ],
      "name": "ProposalCreated",
      "type": "event"
    },
    {
      "anonymous": false,
      "inputs": [
        {
          "indexed": true,
          "internalType": "uint256",
          "name": "proposalId",
          "type": "uint256"
        },
        {
          "indexed": true,
          "internalType": "uint256",
          "name": "stageIndex",
          "type": "uint256"
        },
        {
          "indexed": false,
          "internalType": "uint256",
          "name": "votesFor",
          "type": "uint256"
        },
        {
          "indexed": false,
          "internalType": "uint256",
          "name": "votesAgainst",
          "type": "uint256"
        }
      ],
      "name": "ProposalDefeated",
      "type": "event"
    },
    {
      "anonymous": false,
      "inputs": [
        {
          "indexed": true,
          "internalType": "uint256",
          "name": "proposalId",
          "type": "uint256"
        },
        {
          "indexed": true,
          "internalType": "uint256",
          "name": "stageIndex",
          "type": "uint256"
        },
        {
          "indexed": false,
          "internalType": "uint256",
          "name": "votesFor",
          "type": "uint256"
        },
        {
          "indexed": false,
          "internalType": "uint256",
          "name": "votesAgainst",
          "type": "uint256"
        }
      ],
      "name": "ProposalExecuted",
      "type": "event"
    },
    {
      "anonymous": false,
      "inputs": [
        {
          "indexed": true,
          "internalType": "address",
          "name": "voter",
          "type": "address"
        },
        {
          "indexed": true,
          "internalType": "uint256",
          "name": "proposalId",
          "type": "uint256"
        },
        {
          "indexed": false,
          "internalType": "bool",
          "name": "support",
          "type": "bool"
        },
        {
          "indexed": false,
          "internalType": "uint256",
          "name": "votingPower",
          "type": "uint256"
        }
      ],
      "name": "VoteCast",
      "type": "event"
    },
    {
      "inputs": [
        {
          "internalType": "uint256",
          "name": "proposalId",
          "type": "uint256"
        }
      ],
      "name": "cancelProposal",
      "outputs": [],
      "stateMutability": "nonpayable",
      "type": "function"
    },
    {
      "inputs": [
        {
          "internalType": "uint256",
          "name": "proposalId",
          "type": "uint256"
        }
      ],
      "name": "checkVoteResult",
      "outputs": [],
      "stateMutability": "nonpayable",
      "type": "function"
    },
    {
      "inputs": [
        {
          "internalType": "uint256",
          "name": "stageIndex",
          "type": "uint256"
        },
        {
          "internalType": "string",
          "name": "metadataURI",
          "type": "string"
        }
      ],
      "name": "createMilestoneProposal",
      "outputs": [
        {
          "internalType": "uint256",
          "name": "proposalId",
          "type": "uint256"
        }
      ],
      "stateMutability": "nonpayable",
      "type": "function"
    },
    {
      "inputs": [],
      "name": "escrow",
      "outputs": [
        {
          "internalType": "contract IFundingEscrow",
          "name": "",
          "type": "address"
        }
      ],
      "stateMutability": "view",
      "type": "function"
    },
    {
      "inputs": [
        {
          "internalType": "uint256",
          "name": "proposalId",
          "type": "uint256"
        }
      ],
      "name": "getProposal",
      "outputs": [
        {
          "internalType": "uint256",
          "name": "stageIndex",
          "type": "uint256"
        },
        {
          "internalType": "uint64",
          "name": "votingStart",
          "type": "uint64"
        },
        {
          "internalType": "uint64",
          "name": "votingEnd",
          "type": "uint64"
        },
        {
          "internalType": "uint256",
          "name": "votesFor",
          "type": "uint256"
        },
        {
          "internalType": "uint256",
          "name": "votesAgainst",
          "type": "uint256"
        },
        {
          "internalType": "bool",
          "name": "executed",
          "type": "bool"
        },
        {
          "internalType": "bool",
          "name": "cancelled",
          "type": "bool"
        },
        {
          "internalType": "string",
          "name": "metadataURI",
          "type": "string"
        }
      ],
      "stateMutability": "view",
      "type": "function"
    },
    {
      "inputs": [
        {
          "internalType": "uint256",
          "name": "proposalId",
          "type": "uint256"
        },
        {
          "internalType": "address",
          "name": "voter",
          "type": "address"
        }
      ],
      "name": "getReceipt",
      "outputs": [
        {
          "internalType": "bool",
          "name": "hasVoted",
          "type": "bool"
        },
        {
          "internalType": "bool",
          "name": "support",
          "type": "bool"
        },
        {
          "internalType": "uint256",
          "name": "votingPower",
          "type": "uint256"
        }
      ],
      "stateMutability": "view",
      "type": "function"
    },
    {
      "inputs": [
        {
          "internalType": "uint256",
          "name": "",
          "type": "uint256"
        }
      ],
      "name": "latestProposalIdByStage",
      "outputs": [
        {
          "internalType": "uint256",
          "name": "",
          "type": "uint256"
        }
      ],
      "stateMutability": "view",
      "type": "function"
    },
    {
      "inputs": [],
      "name": "projectOwner",
      "outputs": [
        {
          "internalType": "address",
          "name": "",
          "type": "address"
        }
      ],
      "stateMutability": "view",
      "type": "function"
    },
    {
      "inputs": [],
      "name": "proposalCount",
      "outputs": [
        {
          "internalType": "uint256",
          "name": "",
          "type": "uint256"
        }
      ],
      "stateMutability": "view",
      "type": "function"
    },
    {
      "inputs": [],
      "name": "quorumBasisPoints",
      "outputs": [
        {
          "internalType": "uint16",
          "name": "",
          "type": "uint16"
        }
      ],
      "stateMutability": "view",
      "type": "function"
    },
    {
      "inputs": [
        {
          "internalType": "uint256",
          "name": "proposalId",
          "type": "uint256"
        },
        {
          "internalType": "bool",
          "name": "support",
          "type": "bool"
        }
      ],
      "name": "vote",
      "outputs": [],
      "stateMutability": "nonpayable",
      "type": "function"
    },
    {
      "inputs": [],
      "name": "votingPeriod",
      "outputs": [
        {
          "internalType": "uint64",
          "name": "",
          "type": "uint64"
        }
      ],
      "stateMutability": "view",
      "type": "function"
    }
  ],
  "bytecode": "0x6101006040523480156200001257600080fd5b506040516200189e3803806200189e8339810160408190526200003591620001a7565b60016000556001600160a01b03831662000061576040516282b42960e81b815260040160405180910390fd5b816001600160401b0316600003620000bf5760405162461bcd60e51b815260206004820152601560248201527f566f74696e6720706572696f64206973207a65726f0000000000000000000000604482015260640160405180910390fd5b61ffff81161580620000d657506127108161ffff16115b15620000f55760405163d173577960e01b815260040160405180910390fd5b6001600160a01b038316608081905260408051632911d73960e21b8152905163a4475ce4916004808201926020929091908290030181865afa15801562000140573d6000803e3d6000fd5b505050506040513d601f19601f820116820180604052508101906200016691906200020c565b6001600160a01b031660a0526001600160401b0390911660c05261ffff1660e0525062000233565b6001600160a01b0381168114620001a457600080fd5b50565b600080600060608486031215620001bd57600080fd5b8351620001ca816200018e565b60208501519093506001600160401b0381168114620001e857600080fd5b604085015190925061ffff811681146200020157600080fd5b809150509250925092565b6000602082840312156200021f57600080fd5b81516200022c816200018e565b9392505050565b60805160a05160c05160e0516115d0620002ce60003960008181610102015261049a01526000818160be0152610b1a015260008181610192015281816106200152610fff01526000818161028d0152818161040b015281816105110152818161065f015281816106ff0152818161082f015281816108ea0152818161097d015281816109ff01528181610ce30152610e9901526115d06000f3fe608060405234801561001057600080fd5b50600436106100b45760003560e01c8063c7f758a811610071578063c7f758a8146101cc578063c9d27afe146101f3578063da35c66414610206578063e0a8f6f51461020f578063e23a9a5214610222578063e2fdcc171461028857600080fd5b806302a251a3146100b9578063079e2d2a146100fd57806322d379751461013757806384872eab1461014c578063a16fabc31461016d578063a4475ce41461018d575b600080fd5b6100e07f000000000000000000000000000000000000000000000000000000000000000081565b6040516001600160401b0390911681526020015b60405180910390f35b6101247f000000000000000000000000000000000000000000000000000000000000000081565b60405161ffff90911681526020016100f4565b61014a610145366004611141565b6102af565b005b61015f61015a36600461115a565b610613565b6040519081526020016100f4565b61015f61017b366004611141565b60046020526000908152604090205481565b6101b47f000000000000000000000000000000000000000000000000000000000000000081565b6040516001600160a01b0390911681526020016100f4565b6101df6101da366004611141565b610bf7565b6040516100f49897969594939291906111d5565b61014a61020136600461127e565b610ce1565b61015f60015481565b61014a61021d366004611141565b610ff4565b61026b6102303660046112ae565b60009182526003602090815260408084206001600160a01b0390931684529190529020805460019091015460ff808316936101009093041691565b6040805193151584529115156020840152908201526060016100f4565b6101b47f000000000000000000000000000000000000000000000000000000000000000081565b6102b7611117565b6000818152600260205260408120600181015490916001600160401b0390911690036102fe5760405162461bcd60e51b81526004016102f5906112df565b60405180910390fd5b600481015460ff16156103475760405162461bcd60e51b8152602060048201526011602482015270105b1c9958591e48199a5b985b1a5cd959607a1b60448201526064016102f5565b6004810154610100900460ff16156103965760405162461bcd60e51b8152602060048201526012602482015271141c9bdc1bdcd85b0818d85b98d95b1b195960721b60448201526064016102f5565b6001810154600160401b90046001600160401b031642116103ef5760405162461bcd60e51b8152602060048201526013602482015272566f74696e67207374696c6c2061637469766560681b60448201526064016102f5565b6002810154600382015460006104058284611321565b905060007f00000000000000000000000000000000000000000000000000000000000000006001600160a01b0316636681b9fd6040518163ffffffff1660e01b8152600401602060405180830381865afa158015610467573d6000803e3d6000fd5b505050506040513d601f19601f8201168201806040525081019061048b919061133a565b905060006127106104c061ffff7f00000000000000000000000000000000000000000000000000000000000000001684611353565b6104ca919061136a565b90508083108015908587119082906104df5750805b156105b1576004888101805460ff191660011790558854604051634d68282f60e01b8152918201526001600160a01b037f00000000000000000000000000000000000000000000000000000000000000001690634d68282f90602401600060405180830381600087803b15801561055557600080fd5b505af1158015610569573d6000803e3d6000fd5b50508954604080518b8152602081018b90529193508c92507fd31188695e1c2a2d02b755e14fa986aca41d391c337437b9159eaed8347e7f1c910160405180910390a36105fe565b60048801805460ff19166001179055875460408051898152602081018990528b917f632708e28531eb6cc0373eed7641fe84e570cdf8cd6f57f9abc525a9fb034045910160405180910390a35b50505050505050506106106001600055565b50565b6000336001600160a01b037f0000000000000000000000000000000000000000000000000000000000000000161461065d576040516282b42960e81b815260040160405180910390fd5b7f00000000000000000000000000000000000000000000000000000000000000006001600160a01b031663532f11796040518163ffffffff1660e01b8152600401602060405180830381865afa1580156106bb573d6000803e3d6000fd5b505050506040513d601f19601f820116820180604052508101906106df919061138c565b156106fd57604051632948be9360e01b815260040160405180910390fd5b7f00000000000000000000000000000000000000000000000000000000000000006001600160a01b031663f86a35296040518163ffffffff1660e01b8152600401602060405180830381865afa15801561075b573d6000803e3d6000fd5b505050506040513d601f19601f8201168201806040525081019061077f91906113b0565b60ff1684106107a15760405163e82a532960e01b815260040160405180910390fd5b600084815260046020526040902054801561082b576000818152600260205260409020600481015460ff161580156107e357506004810154610100900460ff16155b156108295760405162461bcd60e51b81526020600482015260166024820152754163746976652070726f706f73616c2065786973747360501b60448201526064016102f5565b505b60007f00000000000000000000000000000000000000000000000000000000000000006001600160a01b0316635bf5d54c6040518163ffffffff1660e01b8152600401602060405180830381865afa15801561088b573d6000803e3d6000fd5b505050506040513d601f19601f820116820180604052508101906108af91906113b0565b90508060ff1686146108d45760405163e82a532960e01b815260040160405180910390fd5b604051632eed71c360e01b8152600481018790527f00000000000000000000000000000000000000000000000000000000000000006001600160a01b031690632eed71c390602401602060405180830381865afa158015610939573d6000803e3d6000fd5b505050506040513d601f19601f8201168201806040525081019061095d919061138c565b1561097b5760405163e82a532960e01b815260040160405180910390fd5b7f00000000000000000000000000000000000000000000000000000000000000006001600160a01b0316637a3a0e846040518163ffffffff1660e01b8152600401602060405180830381865afa1580156109d9573d6000803e3d6000fd5b505050506040513d601f19601f820116820180604052508101906109fd919061133a565b7f00000000000000000000000000000000000000000000000000000000000000006001600160a01b0316636681b9fd6040518163ffffffff1660e01b8152600401602060405180830381865afa158015610a5b573d6000803e3d6000fd5b505050506040513d601f19601f82011682018060405250810190610a7f919061133a565b1015610ac45760405162461bcd60e51b8152602060048201526014602482015273119d5b991a5b99c819dbd85b081b9bdd081b595d60621b60448201526064016102f5565b600160008154610ad3906113d3565b918290555060008181526002602052604090208781556001810180546001600160401b034281811667ffffffffffffffff19909316929092179092559295509091610b40917f00000000000000000000000000000000000000000000000000000000000000001690611321565b6001820180546001600160401b0392909216600160401b026fffffffffffffffff00000000000000001990921691909117905560058101610b8286888361148d565b506000878152600460205260409081902085905560018201549051889186917fe0d4dffc4092beb73a7db6b0ab3d48e1a93ee4637faa633a536e409353c9b72791610be5916001600160401b0380831692600160401b900416908c908c9061154d565b60405180910390a35050509392505050565b600081815260026020819052604090912080546001820154928201546003830154600484015460058501805494966001600160401b0380821697600160401b909204169560ff808516946101009004169260609291610c5590611402565b80601f0160208091040260200160405190810160405280929190818152602001828054610c8190611402565b8015610cce5780601f10610ca357610100808354040283529160200191610cce565b820191906000526020600020905b815481529060010190602001808311610cb157829003601f168201915b5050505050915050919395975091939597565b7f00000000000000000000000000000000000000000000000000000000000000006001600160a01b031663532f11796040518163ffffffff1660e01b8152600401602060405180830381865afa158015610d3f573d6000803e3d6000fd5b505050506040513d601f19601f82011682018060405250810190610d63919061138c565b15610d8157604051632948be9360e01b815260040160405180910390fd5b6000828152600260205260408120600181015490916001600160401b039091169003610dbf5760405162461bcd60e51b81526004016102f5906112df565b60018101546001600160401b0316421080610ded57506001810154600160401b90046001600160401b031642115b15610e0b5760405163335b65a560e11b815260040160405180910390fd5b600481015460ff1680610e2757506004810154610100900460ff165b15610e455760405163335b65a560e11b815260040160405180910390fd5b60008381526003602090815260408083203384529091529020805460ff1615610e8157604051637c9a1cf960e01b815260040160405180910390fd5b60405163042e94c960e41b81523360048201526000907f00000000000000000000000000000000000000000000000000000000000000006001600160a01b0316906342e94c9090602401602060405180830381865afa158015610ee8573d6000803e3d6000fd5b505050506040513d601f19601f82011682018060405250810190610f0c919061133a565b905060008111610f505760405162461bcd60e51b815260206004820152600f60248201526e2737903b37ba34b733903837bbb2b960891b60448201526064016102f5565b8154841580156101000261ffff1990921691909117600190811784558301829055610f945780836002016000828254610f899190611321565b90915550610fae9050565b80836003016000828254610fa89190611321565b90915550505b60408051851515815260208101839052869133917f877856338e13f63d0c36822ff0ef736b80934cd90574a3a5bc9262c39d217c46910160405180910390a35050505050565b336001600160a01b037f0000000000000000000000000000000000000000000000000000000000000000161461103c576040516282b42960e81b815260040160405180910390fd5b6000818152600260205260408120600181015490916001600160401b03909116900361107a5760405162461bcd60e51b81526004016102f5906112df565b600481015460ff168061109657506004810154610100900460ff165b156110d75760405162461bcd60e51b8152602060048201526011602482015270105b1c9958591e48199a5b985b1a5cd959607a1b60448201526064016102f5565b60048101805461ff00191661010017905560405182907f416e669c63d9a3a5e36ee7cc7e2104b8db28ccd286aa18966e98fa230c73b08c90600090a25050565b60026000540361113a57604051633ee5aeb560e01b815260040160405180910390fd5b6002600055565b60006020828403121561115357600080fd5b5035919050565b60008060006040848603121561116f57600080fd5b8335925060208401356001600160401b038082111561118d57600080fd5b818601915086601f8301126111a157600080fd5b8135818111156111b057600080fd5b8760208285010111156111c257600080fd5b6020830194508093505050509250925092565b60006101008a835260206001600160401b03808c166020860152808b1660408601525088606085015287608085015286151560a085015285151560c08501528160e085015284518083860152600092505b8083101561124557858301820151858401610120015291810191611226565b6101209250600083828701015282601f19601f83011686010193505050509998505050505050505050565b801515811461061057600080fd5b6000806040838503121561129157600080fd5b8235915060208301356112a381611270565b809150509250929050565b600080604083850312156112c157600080fd5b8235915060208301356001600160a01b03811681146112a357600080fd5b602080825260129082015271141c9bdc1bdcd85b081b9bdd08199bdd5b9960721b604082015260600190565b634e487b7160e01b600052601160045260246000fd5b808201808211156113345761133461130b565b92915050565b60006020828403121561134c57600080fd5b5051919050565b80820281158282048414176113345761133461130b565b60008261138757634e487b7160e01b600052601260045260246000fd5b500490565b60006020828403121561139e57600080fd5b81516113a981611270565b9392505050565b6000602082840312156113c257600080fd5b815160ff811681146113a957600080fd5b6000600182016113e5576113e561130b565b5060010190565b634e487b7160e01b600052604160045260246000fd5b600181811c9082168061141657607f821691505b60208210810361143657634e487b7160e01b600052602260045260246000fd5b50919050565b601f821115611488576000816000526020600020601f850160051c810160208610156114655750805b601f850160051c820191505b8181101561148457828155600101611471565b5050505b505050565b6001600160401b038311156114a4576114a46113ec565b6114b8836114b28354611402565b8361143c565b6000601f8411600181146114ec57600085156114d45750838201355b600019600387901b1c1916600186901b178355611546565b600083815260209020601f19861690835b8281101561151d57868501358255602094850194600190920191016114fd565b508682101561153a5760001960f88860031b161c19848701351681555b505060018560011b0183555b5050505050565b60006001600160401b03808716835280861660208401525060606040830152826060830152828460808401376000608084840101526080601f19601f85011683010190509594505050505056fea2646970667358221220e0f550a3036d36fa6a239ca927a589d9400ec2dd2615517c725d5577d61c6fed64736f6c63430008180033",
  "linkReferences": {},
  "deployedLinkReferences": {}
}